:100000000C948A000C949C000C949C000C949C0012
:100010000C949C000C949C000C949C000C949C00F0
:100020000C949C000C949C000C949C000C949C00E0
:100030000C949C000C949C000C949C000C949C00D0
:100040000C949C000C949C000C94C2000C949C009A
:100050000C949C000C949C000C949C000C949C00B0
:100060000C949C000C949C000C949C000C949C00A0
:100070000C949C000C949C000C949C000C949C0090
:100080000C949C000C949C000C949C00C501C8012D
:10009000BB01BF01DF01DF01CC01D001D601DA01D4
:1000A000000000010200090A000000000403080724
:1000B0000000000000000000000000000000000040
:1000C0000102040810204080010204081020408032
:1000D0000102040810204080010204081020408022
:1000E00002020202020202020404040404040404E0
:1000F00003030303030303030101010101010101E0
:1001000000002200250028002B0000002100240010
:1001100027002A0011241FBECFEFD0E4DEBFCDBFE1
:1001200021E0A0E0B1E001C01D92A930B207E1F7E3
:100130000E9450020C9466020C94000061E084E17D
:100140000E94E00161E085E10C94E00160E084E15F
:100150000E94190261E085E10E94190268EE73E0D5
:1001600080E090E00E942F0161E084E10E9419028A
:1001700060E085E10E94190268EE73E080E090E0A3
:100180000C942F011F920F920FB60F9211242F93F0
:100190003F938F939F93AF93BF9380910101909171
:1001A0000201A0910301B09104013091000126E009
:1001B000230F2D3720F40296A11DB11D05C029E89B
:1001C000230F0396A11DB11D20930001809301010F
:1001D00090930201A0930301B09304018091050163
:1001E00090910601A0910701B09108010196A11D0F
:1001F000B11D8093050190930601A0930701B09370
:100200000801BF91AF919F918F913F912F910F90D6
:100210000FBE0F901F9018953FB7F894809105017D
:1002200090910601A0910701B091080126B5A89B05
:1002300005C02F3F19F00196A11DB11D3FBF6627D4
:10024000782F892F9A2F620F711D811D911D43E018
:10025000660F771F881F991F4A95D1F708958F92CF
:100260009F92AF92BF92CF92DF92EF92FF926B017B
:100270007C010E940C014B015C01C114D104E1041A
:10028000F104F1F00E945F020E940C0168197909E3
:100290008A099B09683E73408105910570F321E04E
:1002A000C21AD108E108F10888EE880E83E0981E92
:1002B000A11CB11CC114D104E104F10429F7DDCF64
:1002C000FF90EF90DF90CF90BF90AF909F908F9076
:1002D0000895789484B5826084BD84B5816084BDBE
:1002E00085B5826085BD85B5816085BDEEE6F0E0AF
:1002F000808181608083E1E8F0E01082808182600B
:100300008083808181608083E0E8F0E0808181608B
:100310008083E1EBF0E0808184608083E0EBF0E0BB
:10032000808181608083E1E9F0E080818260808368
:10033000808181608083E0E9F0E08081816080835A
:10034000EAE7F0E08081846080838081826080833E
:1003500080818E7F80838081806880831092C1003D
:10036000089590E0FC013197EA30F10540F5EA5B31
:10037000FF4F0C946002809180008F7703C08091C2
:1003800080008F7D80938000089584B58F7702C0B0
:1003900084B58F7D84BD08958091B0008F7703C0B0
:1003A0008091B0008F7D8093B0000895809190007F
:1003B0008F7703C0809190008F7D80939000089587
:1003C000CF93DF9390E0FC01E054FF4F2491FC01B8
:1003D000E052FF4F8491882349F190E0880F991FE4
:1003E000FC01E65FFE4FA591B49180509F4FFC0148
:1003F000C591D4919FB7611108C0F8948C91209554
:1004000082238C93888182230AC0623051F4F8944D
:100410008C91322F309583238C938881822B888313
:1004200004C0F8948C91822B8C939FBFDF91CF9165
:1004300008950F931F93CF93DF931F92CDB7DEB72D
:10044000282F30E0F901E056FF4F8491F901E05484
:10045000FF4F1491F901E052FF4F04910023C9F0BE
:10046000882321F069830E94B1016981E02FF0E0C7
:10047000EE0FFF1FE050FF4FA591B4919FB7F89486
:100480008C91611103C01095812301C0812B8C9345
:100490009FBF0F90DF91CF911F910F910895089505
:1004A0000E9469010E944F020E949E00C0E0D0E0BD
:1004B0000E94A6002097E1F30E940000F9CF089562
:1004C000EE0FFF1F0590F491E02D0994F894FFCFF3
:020000021000EC
:10FC00001F92CDB7DEB7112484B714BE81FF0FD188
:10FC100085E08093810082E08093C00088E180933A
:10FC2000C10086E08093C20080E18093C4008EE032
:10FC3000E9D0209A26E088E19EEF31E0909385009C
:10FC40008093840036BBB09BFECF189AA8952150B4
:10FC5000A9F7612C712C53E0D52ECC24C39461E11B
:10FC6000B62EB7D0813469F4B4D08983D1D08981DC
:10FC7000823819F1813811F486E001C083E0A2D006
:10FC80009EC0823411F484E103C0853419F485E008
:10FC9000C7D095C0853569F49CD0682E9AD0712C58
:10FCA000782A872D881F8827881F8BBF660C771CB2
:10FCB00085C0863521F484E0B3D080E0E0CF84367F
:10FCC00009F04EC092D07C0184D0A82E8701812CEF
:10FCD000992493947ED0F40181934F01015011092E
:10FCE00001151105B9F794D0F5E4AF1212C0E60C76
:10FCF000F71C8301812C992493940E151F0509F498
:10FD00005EC0F40161914F01C8019FD00F5F1F4F8A
:10FD1000F4CFF301D7BEE89507B600FCFDCFA301F1
:10FD2000A0E0B1E08C9112969D0121503109F901BA
:10FD3000208190E0922BFA010C01C7BEE8951124B6
:10FD40004E5F5F4FA115F2E0BF0761F785E0F30159
:10FD500087BFE89507B600FCFDCFB7BEE8952FC07A
:10FD60008437F9F442D08C0134D0898351D0898111
:10FD70007301853461F4C70160D024D001501109AA
:10FD8000FFEFEF1AFF0A01151105A9F718C0F701D7
:10FD900087917F0117D00150110901151105B9F79D
:10FDA0000EC0853739F434D08EE10CD087E90AD003
:10FDB00085E065CF813511F488E024D029D080E139
:10FDC00001D04FCF9091C00095FFFCCF8093C6002B
:10FDD00008958091C00087FFFCCF8091C00084FD12
:10FDE00001C0A8958091C6000895CF93F2DFC82F77
:10FDF000F0DF2C2F30E0322F2227A901482BCA0137
:10FE0000CF910895E0E6F0E098E190838083089533
:10FE1000E0DF803219F088E0F5DFFFCF84E1D2CF58
:10FE2000CF93C82FD6DFC150E9F7CF91F1CF282E5D
:10FE300080E0E8DFEE27FF270994F999FECF92BD15
:10FE400081BDF89A992780B50895262FF999FECF9C
:10FE50001FBA92BD81BD20BD0FB6F894FA9AF99AE7
:06FE60000FBE019608959B
:02FFFE000006FB
:040000031000FC00ED
:00000001FF
